{
  "contractName": "EtherWallet",
  "abi": [
    {
      "inputs": [],
      "stateMutability": "nonpayable",
      "type": "constructor"
    },
    {
      "inputs": [],
      "name": "owner",
      "outputs": [
        {
          "internalType": "address",
          "name": "",
          "type": "address"
        }
      ],
      "stateMutability": "view",
      "type": "function"
    },
    {
      "stateMutability": "payable",
      "type": "receive"
    },
    {
      "inputs": [],
      "name": "withdraw",
      "outputs": [],
      "stateMutability": "nonpayable",
      "type": "function"
    },
    {
      "inputs": [],
      "name": "getBalance",
      "outputs": [
        {
          "internalType": "uint256",
          "name": "",
          "type": "uint256"
        }
      ],
      "stateMutability": "view",
      "type": "function"
    }
  ],
  "bytecode": "0x608060405234801561000f575f80fd5b50335f806101000a81548173ffffffffffffffffffffffffffffffffffffffff021916908373ffffffffffffffffffffffffffffffffffffffff1602179055506102ff8061005c5f395ff3fe608060405260043610610037575f3560e01c806312065fe0146100425780633ccfd60b1461006c5780638da5cb5b146100825761003e565b3661003e57005b5f80fd5b34801561004d575f80fd5b506100566100ac565b60405161006391906101e0565b60405180910390f35b348015610077575f80fd5b506100806100b3565b005b34801561008d575f80fd5b506100966101a5565b6040516100a39190610238565b60405180910390f35b5f47905090565b5f8054906101000a900473ffffffffffffffffffffffffffffffffffffffff1673ffffffffffffffffffffffffffffffffffffffff163373ffffffffffffffffffffffffffffffffffffffff1614610140576040517f08c379a0000000000000000000000000000000000000000000000000000000008152600401610137906102ab565b60405180910390fd5b5f8054906101000a900473ffffffffffffffffffffffffffffffffffffffff1673ffffffffffffffffffffffffffffffffffffffff166108fc4790811502906040515f60405180830381858888f193505050501580156101a2573d5f803e3d5ffd5b50565b5f8054906101000a900473ffffffffffffffffffffffffffffffffffffffff1681565b5f819050919050565b6101da816101c8565b82525050565b5f6020820190506101f35f8301846101d1565b92915050565b5f73ffffffffffffffffffffffffffffffffffffffff82169050919050565b5f610222826101f9565b9050919050565b61023281610218565b82525050565b5f60208201905061024b5f830184610229565b92915050565b5f82825260208201905092915050565b7f4f6e6c7920746865206f776e65722063616e20776974686472617700000000005f82015250565b5f610295601b83610251565b91506102a082610261565b602082019050919050565b5f6020820190508181035f8301526102c281610289565b905091905056fea26469706673582212204880bfdc86dce939ab16328edb8d4c7866d885796ba99d634662e78f82a1153a64736f6c63430008150033",
  "immutableReferences": {},
  "source": "// SPDX-License-Identifier: MIT\r\npragma solidity ^0.8.0;\r\n\r\ncontract EtherWallet {\r\n    address public owner;\r\n\r\n    constructor() {\r\n        owner = msg.sender; // Set the contract owner\r\n    }\r\n\r\n    // Function to receive Ether\r\n    receive() external payable {}\r\n\r\n    // Function to withdraw all Ether\r\n    function withdraw() external {\r\n        require(msg.sender == owner, \"Only the owner can withdraw\");\r\n        payable(owner).transfer(address(this).balance);\r\n    }\r\n\r\n    // Function to check the balance of the contract\r\n    function getBalance() external view returns (uint) {\r\n        return address(this).balance;\r\n    }\r\n}\r\n",
  "sourcePath": "C:\\Windows\\System32\\web3_project\\contracts\\EtherWallet.sol",
  "compiler": {
    "name": "solc",
    "version": "0.8.21+commit.d9974bed.Emscripten.clang"
  },
  "schemaVersion": "3.4.16",
  "updatedAt": "2024-12-23T11:20:18.022Z",
  "devdoc": {
    "kind": "dev",
    "methods": {},
    "version": 1
  },
  "userdoc": {
    "kind": "user",
    "methods": {},
    "version": 1
  }
}